{
  "contractName": "BoostrFactory",
  "abi": [
    {
      "constant": false,
      "inputs": [
        {
          "name": "title",
          "type": "string"
        },
        {
          "name": "description",
          "type": "string"
        },
        {
          "name": "minimum",
          "type": "uint256"
        }
      ],
      "name": "createBoostr",
      "outputs": [],
      "payable": false,
      "stateMutability": "nonpayable",
      "type": "function"
    },
    {
      "constant": true,
      "inputs": [],
      "name": "getAllBoostrs",
      "outputs": [
        {
          "name": "",
          "type": "address[]"
        }
      ],
      "payable": false,
      "stateMutability": "view",
      "type": "function"
    }
  ],
  "bytecode": "0x608060405234801561001057600080fd5b5061111b806100206000396000f30060806040526004361061004b5763ffffffff7c010000000000000000000000000000000000000000000000000000000060003504166346b941288114610050578063d8d86bed146100b5575b600080fd5b34801561005c57600080fd5b50610065610150565b60408051602080825283518183015283519192839290830191858101910280838360005b838110156100a1578181015183820152602001610089565b505050509050019250505060405180910390f35b3480156100c157600080fd5b506040805160206004803580820135601f810184900484028501840190955284845261014e94369492936024939284019190819084018382808284375050604080516020601f89358b018035918201839004830284018301909452808352979a99988101979196509182019450925082915084018382808284375094975050933594506101bf9350505050565b005b606060008054806020026020016040519081016040528092919081815260200182805480156101b557602002820191906000526020600020905b815473ffffffffffffffffffffffffffffffffffffffff16815260019091019060200180831161018a575b5050505050905090565b6000838383336101cd61034b565b6040810183905273ffffffffffffffffffffffffffffffffffffffff8216606082015260808082528551908201528451819060208083019160a084019189019080838360005b8381101561022b578181015183820152602001610213565b50505050905090810190601f1680156102585780820380516001836020036101000a031916815260200191505b50838103825286518152865160209182019188019080838360005b8381101561028b578181015183820152602001610273565b50505050905090810190601f1680156102b85780820380516001836020036101000a031916815260200191505b509650505050505050604051809103906000f0801580156102dd573d6000803e3d6000fd5b50600080546001810182559080527f290decd9548b62a8d60345a988386fc84ba6bc95484008f6362f93160ef3e56301805473ffffffffffffffffffffffffffffffffffffffff191673ffffffffffffffffffffffffffffffffffffffff9290921691909117905550505050565b604051610d948061035c833901905600608060405234801561001057600080fd5b50604051610d94380380610d94833981016040908152815160208084015192840151606085015192850180519095949094019390929161005591600191870190610095565b508251610069906002906020860190610095565b5060038054600160a060020a031916600160a060020a0392909216919091179055600455506101309050565b828054600181600116156101000203166002900490600052602060002090601f016020900481019282601f106100d657805160ff1916838001178555610103565b82800160010185558215610103579182015b828111156101035782518255916020019190600101906100e8565b5061010f929150610113565b5090565b61012d91905b8082111561010f5760008155600101610119565b90565b610c558061013f6000396000f3006080604052600436106100cf5763ffffffff7c01000000000000000000000000000000000000000000000000000000006000350416630344100681146100d45780633410452a146100e15780634051ddac14610108578063490ed40c146102305780634a79d50c146102655780637284e416146102ef57806381d12c581461030457806382fde093146103c65780638a9cfd55146103db578063937e09b114610445578063d50095841461045a578063d7bb99ba1461048b578063d7d1bbdb14610493578063dc02837f146104ab575b600080fd5b6100df6004356104cc565b005b3480156100ed57600080fd5b506100f66105b3565b60408051918252519081900360200190f35b34801561011457600080fd5b5061011d6105ba565b60405180806020018060200188815260200187815260200186815260200185815260200184600160a060020a0316600160a060020a0316815260200183810383528a818151815260200191508051906020019080838360005b8381101561018e578181015183820152602001610176565b50505050905090810190601f1680156101bb5780820380516001836020036101000a031916815260200191505b5083810382528951815289516020918201918b019080838360005b838110156101ee5781810151838201526020016101d6565b50505050905090810190601f16801561021b5780820380516001836020036101000a031916815260200191505b50995050505050505050505060405180910390f35b34801561023c57600080fd5b50610251600160a060020a036004351661071a565b604080519115158252519081900360200190f35b34801561027157600080fd5b5061027a610738565b6040805160208082528351818301528351919283929083019185019080838360005b838110156102b457818101518382015260200161029c565b50505050905090810190601f1680156102e15780820380516001836020036101000a031916815260200191505b509250505060405180910390f35b3480156102fb57600080fd5b5061027a6107c5565b34801561031057600080fd5b5061031c60043561081d565b604051808060200186815260200185600160a060020a0316600160a060020a0316815260200184151515158152602001838152602001828103825287818151815260200191508051906020019080838360005b8381101561038757818101518382015260200161036f565b50505050905090810190601f1680156103b45780820380516001836020036101000a031916815260200191505b50965050505050505060405180910390f35b3480156103d257600080fd5b506100f6610908565b3480156103e757600080fd5b506040805160206004803580820135601f81018490048402850184019095528484526100df9436949293602493928401919081908401838280828437509497505084359550505050602090910135600160a060020a0316905061090e565b34801561045157600080fd5b506100f6610a40565b34801561046657600080fd5b5061046f610a46565b60408051600160a060020a039092168252519081900360200190f35b6100df610a55565b34801561049f57600080fd5b506100df600435610aab565b3480156104b757600080fd5b50610251600160a060020a0360043516610b38565b600354600090600160a060020a031633146104e657600080fd5b60008054839081106104f457fe5b906000526020600020906005020190508060020160149054906101000a900460ff1615151561052257600080fd5b60075460029004816004015411151561053a57600080fd5b60028101805474ff000000000000000000000000000000000000000019167401000000000000000000000000000000000000000017908190556001820154604051600160a060020a039092169181156108fc0291906000818181858888f193505050501580156105ae573d6000803e3d6000fd5b505050565b6000545b90565b60608060008060008060006001600260045430600160a060020a0316316000805490506007546105e8610a46565b8654604080516020601f6002600019610100600188161502019095169490940493840181900481028201810190925282815291899183018282801561066e5780601f106106435761010080835404028352916020019161066e565b820191906000526020600020905b81548152906001019060200180831161065157829003601f168201915b5050895460408051602060026001851615610100026000190190941693909304601f8101849004840282018401909252818152959c508b9450925084019050828280156106fc5780601f106106d1576101008083540402835291602001916106fc565b820191906000526020600020905b8154815290600101906020018083116106df57829003601f168201915b50505050509550965096509650965096509650965090919293949596565b600160a060020a031660009081526006602052604090205460ff1690565b60018054604080516020600284861615610100026000190190941693909304601f810184900484028201840190925281815292918301828280156107bd5780601f10610792576101008083540402835291602001916107bd565b820191906000526020600020905b8154815290600101906020018083116107a057829003601f168201915b505050505081565b6002805460408051602060018416156101000260001901909316849004601f810184900484028201840190925281815292918301828280156107bd5780601f10610792576101008083540402835291602001916107bd565b600080548290811061082b57fe5b60009182526020918290206005919091020180546040805160026001841615610100026000190190931692909204601f8101859004850283018501909152808252919350918391908301828280156108c45780601f10610899576101008083540402835291602001916108c4565b820191906000526020600020905b8154815290600101906020018083116108a757829003601f168201915b505050506001830154600284015460049094015492939092600160a060020a03821692507401000000000000000000000000000000000000000090910460ff169085565b60075481565b610916610b56565b600354600160a060020a0316331461092d57600080fd5b506040805160a0810182528481526020808201859052600160a060020a03841692820192909252600060608201819052608082018190528054600181018083559180528251805193949293859360059093027f290decd9548b62a8d60345a988386fc84ba6bc95484008f6362f93160ef3e56301926109b0928492910190610b91565b5060208201516001820155604082015160028201805460608501511515740100000000000000000000000000000000000000000274ff000000000000000000000000000000000000000019600160a060020a0390941673ffffffffffffffffffffffffffffffffffffffff1990921691909117929092169190911790556080909101516004909101555050505050565b60045481565b600354600160a060020a031690565b6000341115610aa957336000908152600560205260409020805460ff19166001179055600454341115610aa957336000908152600660205260409020805460ff191660019081179091556007805490910190555b565b60008082815481101515610abb57fe5b6000918252602080832033845260069091526040909220546005909102909101915060ff161515610aeb57600080fd5b33600090815260038201602052604090205460ff1615610b0a57600080fd5b3360009081526003820160205260409020805460ff1916600190811790915560049091018054909101905550565b600160a060020a031660009081526005602052604090205460ff1690565b60a06040519081016040528060608152602001600081526020016000600160a060020a03168152602001600015158152602001600081525090565b828054600181600116156101000203166002900490600052602060002090601f016020900481019282601f10610bd257805160ff1916838001178555610bff565b82800160010185558215610bff579182015b82811115610bff578251825591602001919060010190610be4565b50610c0b929150610c0f565b5090565b6105b791905b80821115610c0b5760008155600101610c155600a165627a7a723058208608388c1fa75b4b4c959e4099f93d65d28f891232304ec28dcba7622c9e929d0029a165627a7a72305820a6b66e1f084ed19c95c3e2ce4dbbd42e37e1645078bbfc969c06ab050e7fd8ab0029",
  "source": "pragma solidity ^0.4.17;\n\nimport \"./Boostr.sol\";\n\ncontract BoostrFactory {\n    address[] private deployedBoostrs;\n\n    function createBoostr(string title, string description, uint minimum) public {\n        address newBoostr = new Boostr(title, description, minimum, msg.sender);\n        deployedBoostrs.push(newBoostr);\n    }\n\n    function getAllBoostrs() public view returns (address[]) {\n        return deployedBoostrs;\n    }\n}\n",
  "sourcePath": "/Users/lesansley/Sites/boostr/boostrTruffle/contracts/BoostrFactory.sol",
  "compiler": {
    "name": "solc",
    "version": "0.4.24+commit.e67f0147.Emscripten.clang"
  },
  "schemaVersion": "2.0.1",
  "updatedAt": "2018-08-27T15:58:27.538Z"
}